S01C00007465726D70726F6A6563745F6A696E6368616E672E73726563B8
S113000086C0000094C0000092C0000091C00000AF
S11300108EC000008CC000008AC0000088C00000B0
S113002086C0000084C0000082C0000080C00000C0
S11300307EC000007CC000007AC0000078C00000D0
S113004076C0000074C0000072C0000070C00000E0
S11300506EC000006CC000006AC0000068C00000F0
S113006066C0000064C0000062C0000060C0000000
S11300705EC00000AFC000005AC0000058C00000BD
S113008056C0000054C0000052C000000800000028
S1130090BE922449123EABAAAA2ABECDCCCC4C3E79
S11300A000000080BEABAAAAAA3E00000000BF0068
S11300B00000803F0000000000084178D3BB438764
S11300C0D1133D190E3CC3BD4282AD2B3E68EC8278
S11300D076BED98FE1A93E4C80EFFFBE01C4FF7FFD
S11300E03F000000000007634236B79BD8A71A39C7
S11300F0685618AEBAAB558C1D3CB7CC5763BD6D72
S1130100EDFD753EF6177231BF000000803F1124EB
S11301101FBECFEFD0E1DEBFCDBF21E0A0E0B1E054
S113012001C01D92A930B207E1F7C3D0F5C568CF6D
S11301301F920F920FB60F9211240BB60F922F93AA
S11301403F934F935F936F937F938F939F93AF935B
S1130150BF93EF93FF9380916A008073803201F51F
S113016064B570E080E090E02CD360930501709357
S11301700601809307019093080126E933E44BE8D4
S11301805FE3FCD360930101709302018093030148
S113019090930401EAE6F0E080818063808307C0E5
S11301A014BCEAE6F0E080818F7C80628083FF915A
S11301B0EF91BF91AF919F918F917F916F915F91DB
S11301C04F913F912F910F900BBE0F900FBE0F9048
S11301D01F9018951F920F920FB60F9211240BB611
S11301E00F922F933F934F935F936F937F938F93CC
S11301F09F93AF93BF93EF93FF938DE19BEF909306
S113020089008093880080910001813619F48BB3B2
S113021080958BBB83E5A6D0D1D0ACD08CE2A2D0A4
S1130220E1D0A8D08CE29ED011D1A4D08CE29AD097
S113023021D1A0D08CE296D059D19CD08CE292D01E
S113024058D198D08CE28ED085D194D08CE28AD0CB
S11302509AD186D2CB018ED08CE284D0A8D1609181
S1130260010170910201809103019091040178D2FF
S1130270CB0180D08CE276D085E474D084EF91E019
S11302809BBD8ABD99BD88BD10920001FF91EF917D
S1130290BF91AF919F918F917F916F915F914F919A
S11302A03F912F910F900BBE0F900FBE0F901F9098
S11302B018950CD017D01DD029D02DD03AD046D0C7
S11302C050D0789453D080930001FCCF8FEF8ABB39
S11302D084BB90E697BB11BA15BA95B3906595BBEC
S11302E08BBB0895909880E380936A0084E089BF73
S11302F0089582EA8FBD89E18EBD80E293E097BDC7
S113030086BD1BBC1ABC19BC18BC089585E085BD0C
S113031084E684BD089510928B0084E080938A0063
S113032080937D008DE19BEF9093890080938800FA
S1130330089580E487B987E886B90895806487B909
S1130340369A349BFECF84B195B10895199A1898C2
S11303501BB888E18AB986E08093950088E089B962
S1130360089508955D9BFECF8CB908955F9BFECFE1
S11303708CB10895CF93DF93EC0168EE73E0A5D4BC
S113038080E3860FEFDF24E630E0CE01B9019DD48F
S1130390CB01B9019AD4805DE5DF2AE030E0CE01DB
S11303A0B90193D4C82FCB01B9018FD4805DDADFB2
S11303B080E38C0FD7DFDF91CF91089580E0BEDF1B
S11303C0BC01990F880B990BFED120E030EC4FE76C
S11303D054E45ED120E030E048EC52E4CFD2C0D106
S11303E0CB01089581E0AADFBC01990F880B990B1A
S11303F0EAD12AE038E240EA5BE3C0D29B01AC01D7
S113040060E070E08CEB91E443D126E636E646E901
S113041050E4D9D068D22DE430E14DEC5FE3D3D081
S11304202DEC3CEC4CE45FE333D19B01AC0160E088
S113043070E080E89FE3C7D09B01AC0160E070E00E
S113044080E291E4FED28CD1CB01089582E076DF84
S1130450BC01990F880B990BB6D12AE038E240EA27
S11304605BE38CD220E030E048EC52E487D278D1D0
S1130470CB01089583E062DFBC01990F880B990BCF
S1130480A2D12AE038E240EA5BE378D29B01AC01D6
S113049060E070E080EA90E4FBD020E030EE42E9D6
S11304A055E46CD220E030EE42E955E48CD020E0F3
S11304B030E04AE754E4ECD021D22BEF33EA4FE8A2
S11304C059E35CD22FE03FEC4BE55BE37DD09B012D
S11304D0AC0160E070E080E89FE3DAD020E030EC2B
S11304E048E853E470D03CD1CB01089586E026CF90
S11304F008950F931F93CF93DF9387E01FDFBC0111
S1130500990F880B990B5FD12AE038E240EA5BE34C
S113051035D29B01AC0169E27CE587E890E491D295
S1130520062F172FD82FC92F20E030E04AE754E4D4
S1130530D6D1882324F000E010ECD9E7C4E4602F7E
S1130540712F8D2F9C2F0CD1CB01DF91CF911F9157
S11305500F91089584E0F2DEBC01990F880B990B8A
S113056032D12AE038E240EA5BE308D226EB33EFEB
S11305704DE95FEB66D22CEA3CE140EE51E4FED15A
S1130580EFD0CB01089585E0D9DE8D3B22E09207C0
S11305903CF4843F21E092072CF484EF91E002C004
S11305A08CEB92E0BC01990F880B990B0CC1A898B5
S11305B08AE08A95F1F700C0A89A85E38A95F1F755
S11305C00000A89808955058BB27AA270ED04DC103
S11305D03ED130F043D120F031F49F3F11F41EF4AA
S11305E033C10EF4E095E7FB29C1E92F4FD180F325
S11305F0BA17620773078407950718F071F49EF51C
S113060067C10EF4E0950B2EBA2FA02D0B01B90192
S113061090010C01CA01A0011124FF27591B99F074
S1130620593F50F4503E68F11A16F040A22F232F80
S1130630342F4427585FF3CF469537952795A795D0
S1130640F0405395C9F77EF41F16BA0B620B730B77
S1130650840BBAF09150A1F0FF0FBB1F661F771FE8
S1130660881FC2F70EC0BA0F621F731F841F48F49D
S1130670879577956795B795F7959E3F08F0B3CF23
S11306809395880F08F09927EE0F9795879508950D
S11306900CD0EBC0E3D040F0DAD030F021F45F3F6F
S11306A019F0CCC0511115C1CFC0F0D098F39923E3
S11306B0C9F35523B1F3951B550BBB27AA27621722
S11306C07307840738F09F5F5F4F220F331F441F67
S11306D0AA1FA9F333D00E2E3AF0E0E830D091509F
S11306E05040E695001CCAF729D0FE2F27D0660F8C
S11306F0771F881FBB1F261737074807AB07B0E8CB
S113070009F0BB0B802DBF01FF2793585F4F2AF0E0
S11307109E3F510568F092C0DCC05F3FECF3983E09
S1130720DCF3869577956795B795F7959F5FC9F73D
S1130730880F911D9695879597F90895E1E0660FC6
S1130740771F881FBB1F621773078407BA0720F03F
S1130750621B730B840BBA0BEE1F88F7E0950895A8
S113076004D06894B111B5C0089598D088F09F570B
S113077090F0B92F9927B751A0F0D1F0660F771FE9
S1130780881F991F1AF0BA95C9F712C0B13081F0C9
S11307909FD0B1E008959CC0672F782F8827B85F59
S11307A039F0B93FCCF3869577956795B395D9F72A
S11307B03EF490958095709561957F4F8F4F9F4F34
S11307C00895E89409C097FB3EF490958095709540
S11307D061957F4F8F4F9F4F9923A9F0F92F96E989
S11307E0BB279395F695879577956795B795F111FE
S11307F0F8CFFAF4BB0F11F460FF1BC06F5F7F4F9B
S11308008F4F9F4F16C0882311F096E911C07723AC
S113081021F09EE8872F762F05C0662371F096E8B5
S1130820862F70E060E02AF09A95660F771F881F84
S1130830DAF7880F9695879597F9089597F99F6742
S113084080E870E060E008959FEF80EC0895002454
S11308500A941616170618060906089500240A9421
S113086012161306140605060895092E0394000CA7
S113087011F4882352F0BB0F40F4BF2B11F460FF36
S113088004C06F5F7F4F8F4F9F4F089557FD90585F
S1130890440F551F59F05F3F71F04795880F97FB40
S11308A0991F61F09F3F79F08795089512161306FA
S11308B01406551FF2CF4695F1DF08C01616170629
S11308C01806991FF1CF869571056105089408955E
S11308D0E894BB2766277727CB0197F908952ED193
S11308E008F48FEF08950AD029ED3BE54EED5EE361
S11308F045C00EF047C1A8CF6894A0CFCFDFC8F39E
S11309009923D1F3C6F3DF93CF931F930F93FF92F1
S1130910C92FDD2788232AF02197660F771F881FA8
S1130920DAF720E030E040E85FEB9FE3883920F01D
S1130930803E30F021968F7747DEECE8F0E003C08C
S113094043DEE9EBF0E02CD18B01BE01EC01FB2E80
S11309506F5771097595771F880B990B34DF28E160
S113096032E741E35FE316D0AF2D9801AE01FF906B
S11309700F911F91CF91DF9138DE77CF0BD075CFD8
S113098066DF28F06BDF18F0952309F057CF5CCFB2
S113099011249FCF7BDFA0F3959FD1F3950F50E0F7
S11309A0551F629FF001729FBB27F00DB11D639F1D
S11309B0AA27F00DB11DAA1F649F6627B00DA11DC3
S11309C0661F829F2227B00DA11D621F739FB00D69
S11309D0A11D621F839FA00D611D221F749F3327D9
S11309E0A00D611D231F849F600D211D822F762F72
S11309F06A2F11249F5750408AF0E1F088234AF06F
S1130A00EE0FFF1FBB1F661F771F881F91505040BA
S1130A10A9F79E3F510570F011CF5BCF5F3FECF318
S1130A20983EDCF3869577956795B795F795E795A6
S1130A309F5FC1F7FE2B880F911D9695879597F9B7
S1130A400895FA01EE0FFF1F30962105310599F143
S1130A506115710561F48038BFE39B0749F168941F
S1130A609038810561F08038BFEF9B0741F09923EE
S1130A7042F5FF3FE1053105210511F1E8940894A1
S1130A80E795D901AA2329F4AB2FBE2FF85FD0F341
S1130A9010C0FF5F70F4A695E0F7F73950F019F035
S1130AA0FF3A38F49F779F930CD00F9007FC90582F
S1130AB008953EF0C9CE60E070E080E89FE30895B9
S1130AC04FE79F775F934F933F932F9317DF2F91B8
S1130AD03F914F915F9152DF05C019F40EF0AECEF5
S1130AE0F7CEB2CEDBDEC8F39638C0F707F80F9224
S1130AF0E8942BE33AEA48EB5FE74EDF0F920F925C
S1130B000F924DB75EB70F92ADD0E6EEF0E048D04D
S1130B104F915F91EF91FF91E595EE1FFF1F49F013
S1130B20FE57E0684427EE0F441FFA95E1F741951C
S1130B30550B64D00F9007FE58C00895990F000814
S1130B40550FAA0BE0E8FEEF16161706E807F9079B
S1130B50C0F012161306E407F50798F0621B730B36
S1130B60840B950B39F40A2661F0232B242B252BB7
S1130B7021F408950A2609F4A140A6958FEF811D5A
S1130B80811D08959F3F31F0915020F4879577950A
S1130B906795B795880F911D9695879597F9089550
S1130BA0DF93CF931F930F93FF92EF92DF927B011A
S1130BB08C01689405C0DA2EEF01ECDEFE01E894A6
S1130BC0A5912591359145915591AEF3EF010DDD38
S1130BD0FE019701A801DA9479F7DF90EF90FF9076
S1130BE00F911F91CF91DF9108959B01AC0160E0BB
S1130BF070E080E89FE34CCD21CEC4CF4FDEE8F314
S1130C009923D9F3940F511DBBF39150504094F0A4
S1130C1059F0882332F0660F771F881F9150504097
S1130C20C1F79E3F510544F7880F911D969587950E
S1130C3097F908955F3FACF0983E9CF0BB278695EA
S1130C4077956795B79508F4B1609395C1F7BB0F95
S1130C5058F711F460FFE8CF6F5F7F4F8F4F9F4FBE
S1130C60E3CF37CEFA01DC01AA0FBB1F9B01AC0115
S1130C70BF5728F422273327442750781FC0B75181
S1130C8088F4AB2F0024469537952795011CA3952E
S1130C90D2F3002069F0220F331F441FB395DAF317
S1130CA00DD091CC61307105A0E88A07B94630F4C3
S1130CB09B01AC016627772788279078309621F02E
S1130CC02083318342835383089597FB072E16F4C0
S1130CD0009406D077FD08D00BD007FC05D03EF475
S1130CE0909581959F4F0895709561957F4F0895D4
S1130CF0AA1BBB1B51E107C0AA1FBB1FA617B7073E
S1130D0010F0A61BB70B881F991F5A95A9F7809559
S10F0D109095BC01CD010895F894FFCF2C
S9030000FC
