S01C00007465726D70726F6A6563745F6A696E6368616E672E73726563B8
S113000045C0000054C000005DC000004FC00000A7
S11300104DC000004BC0000049C0000047C00000B4
S113002045C0000043C0000041C000003FC00000C4
S11300303DC000003BC0000039C0000037C00000D4
S113004035C0000033C0000031C000002FC00000E4
S11300502DC000002BC0000029C0000027C00000F4
S113006025C0000023C0000021C000001FC0000004
S11300701DC0000035C0000019C0000017C00000FA
S113008015C0000013C0000011C0000011241FBEE1
S1130090CFEFD0E1DEBFCDBF21E0A0E0B1E001C0F1
S11300A01D92A230B207E1F764D012C1A9CF1F920A
S11300B00F920FB60F9211241BBA0F900FBE0F9020
S11300C01F9018951F920F920FB60F9211248F93C1
S11300D08FEF8BBB8F910F900FBE0F901F901895D1
S11300E01F920F920FB60F9211240BB60F922F93FB
S11300F03F934F935F936F937F938F939F93AF93AC
S1130100BF93EF93FF938DE19BEF909389008093CE
S11301108800809100019091010101969093010162
S1130120809300014A9774F0A9D084D08CE27AD0ED
S113013080E278D08AE076D08DE074D0109201010C
S1130140109200011BBC1ABC19BC18BCFF91EF91A2
S1130150BF91AF919F918F917F916F915F914F91DB
S11301603F912F910F900BBE0F900FBE0F901F90D9
S1130170189508D00DD013D01FD02CD038D042D031
S11301807894FFCF8FEF8ABB84BB11BA8BBB0895E1
S113019011BA8AE080936A0083E089BF089582EAF5
S11301A08FBD89E18EBD80E293E097BD86BD1BBC07
S11301B01ABC19BC18BC089510928B0084E080937B
S11301C08A0080937D008DE19BEF9093890080935A
S11301D08800089580E487B987E886B90895806423
S11301E087B9369A349BFECF84B195B1089583E0E4
S11301F082B91BB888E18AB986E08093950088E0CB
S113020089B9089581B3837F886081BB10929B0074
S113021088E180939A0086E080939D0088E0809333
S113022099000895EBE9F0E0908195FFFDCF80936C
S11302309C000895CF93DF93EC0168EE73E021D026
S113024080E3860FEFDF24E630E0CE01B90119D058
S1130250CB01B90116D0805DE5DF2AE030E0CE01A4
S1130260B9010FD0C82FCB01B9010BD0805DDADF03
S113027080E38C0FD7DFDF91CF91089586E0AFCF75
S1130280089597FB072E16F4009406D077FD08D046
S11302900BD007FC05D03EF4909581959F4F0895AF
S11302A0709561957F4F0895AA1BBB1B51E107C050
S11302B0AA1FBB1FA617B70710F0A61BB70B881FF2
S11302C0991F5A95A9F780959095BC01CD01089581
S10702D0F894FFCFCC
S9030000FC
